:100000000C945F000C9487000C9487000C9487007C
:100010000C9487000C9487000C9487000C94870044
:100020000C9487000C9487000C9487000C94870034
:100030000C9487000C9487000C9487000C94870024
:100040000C9494030C9487000C945C060C948E061C
:100050000C9487000C9487000C9487000C94870004
:100060000C9487000C948700000000080002010037
:100070000003040700000000000000000102040863
:100080001020408001020408102001020408102002
:10009000040404040404040402020202020203032E
:1000A0000303030300000000250028002B000000CC
:1000B0000000240027002A000A017303B40611245B
:1000C0001FBECFEFD8E0DEBFCDBF11E0A0E0B1E0B2
:1000D000E0E1F5E102C005900D92AA3BB107D9F726
:1000E00022E0AAEBB1E001C01D92A63CB207E1F705
:1000F00010E0CEEBD0E004C02297FE010E94BF07C3
:10010000C83BD107C9F70E94DE000C94860A0C9404
:10011000000048EB5BE060E070E082ED91E00E945F
:10012000C10220E032EC41E050E063E272E082ED97
:1001300091E00E94D70261E082ED91E00E94970277
:10014000882391F060E071E0809114029091150293
:100150000E9435076AE070E080E090E00E940D04A4
:1001600082ED91E00E94C00241E060E082ED91E00A
:100170000C945503CF93DF93EA0120E0462F682FBC
:100180008AEB91E00E94D30140E060E08AEB91E0CD
:100190000E94B901688179818AEB91E00E9435075C
:1001A00041E060E08AEB91E00E94B9016A817B81C5
:1001B0008AEB91E0DF91CF910C943507CF93DF93D9
:1001C00000D000D0CDB7DEB70E9452040E94890053
:1001D00082E191E09F938F930E94C30786E291E0B2
:1001E0009A83898383E291E09C838B83AE014F5F86
:1001F0005F4F62E070E080E190E00E94BA0080E032
:1002000090E00F900F900F900F900F900F90DF9154
:10021000CF910895CF92EF920F9382E0C82E93E092
:10022000E92E04E025E04BE06CE08AEB91E00E94CF
:1002300071020F91EF90CF900895CF93DF93EC016F
:1002400060E08E810E94EF0481E090E00E9447040C
:1002500061E08E810E94EF0481E090E00E944704FB
:1002600060E08E810E94EF0484E690E0DF91CF9100
:100270000C944704EF92FF920F931F93CF93DF9359
:100280008C01C0E0D0E0E62EF12CB7010C2E02C0AC
:10029000759567950A94E2F76170F801EC0FFD1F00
:1002A00087810E94EF042196C430D10571F7C801FF
:1002B000DF91CF911F910F91FF90EF900C941D0152
:1002C000EF92FF920F931F93CF93DF938C01C0E0C7
:1002D000D0E0E62EF12CB7010C2E02C07595679583
:1002E0000A94E2F76170F801EC0FFD1F87810E940C
:1002F000EF042196C830D10571F7C801DF91CF9185
:100300001F910F91FF90EF900C941D011F93CF93BD
:10031000DF93EC01162F642F8C810E94EF048D81F6
:100320008F3F19F060E00E94EF048F85612F84FFFA
:1003300006C0CE01DF91CF911F910C94600170E057
:1003400084E0759567958A95E1F7CE010E943A01A0
:10035000612FCE01DF91CF911F910C943A0140E0C3
:100360000C94860161E00E94AF0180ED97E00C944F
:100370004704443008F043E0FC012389421710F0A1
:100380004FEF420FFC01E40FF11D2489260F206876
:10039000622F0C94AF01FC016089262F2460208B12
:1003A0006C600C94AF010F931F93CF93DF93EC011C
:1003B000423018F08F8588608F874B8B1C8A80E4D1
:1003C0008D8B6E8B70E0605C7F4F6F8B222329F0EA
:1003D000413019F48F8584608F8761E08C810E94A1
:1003E000B6048D818F3F19F061E00E94B60461E090
:1003F0008E810E94B60400E010E08F8584FF03C068
:1004000088E090E002C084E090E00817190754F4F7
:10041000FE01E00FF11F61E087810E94B6040F5FCB
:100420001F4FEBCF80E593EC0E94470460E08C8186
:100430000E94EF0460E08E810E94EF048D818F3F67
:1004400019F060E00E94EF046F8564FD1DC063E059
:10045000CE010E943A0184E991E10E94470463E0E1
:10046000CE010E943A0184E991E10E94470463E0D1
:10047000CE010E943A0186E990E00E94470462E0C2
:10048000CE010E943A0116C06062CE010E94AF0107
:1004900084E991E10E9447046F856062CE010E9469
:1004A000AF0186E990E00E9447046F856062CE014B
:1004B0000E94AF016F856062CE010E94AF0184E0AF
:1004C000888BCE010E94CB01CE010E94B20182E056
:1004D000898B66E0CE01DF91CF911F910F910C9433
:1004E000AF01CF92EF920F93FC01138212828BE344
:1004F00091E09183808364838FEF85834683278394
:100500000087E186C28613861486158616861786AE
:1005100020E041E060E1CF010F91EF90CF900C948B
:10052000D30141E00E94860181E090E008950F939D
:100530001F93CF93DF93EC01611116C00E94DE037D
:100540000A811B812C813D81601B710B820B930BF7
:10055000613271058105910538F463E070E080E057
:1005600090E00E940D04EACF0E94DE036A837B8341
:100570008C839D8381E0DF91CF911F910F9108952E
:100580000895FC01EC5BFF4F1082118212821382EE
:10059000FC011282138214821582411551056105F6
:1005A000710521F0CB01BA010C940D040895FB01F3
:1005B000BA01A9018E5B9F4FDC01ED93FC9326E00D
:1005C000CF010C94FA058E5B9F4FDC018D919C91BD
:1005D000DC01ED91FC910680F781E02D09950895ED
:1005E0008E5B9F4FDC018D919C91DC01ED91FC9124
:1005F0000480F581E02D099508951F93CF93DF9333
:10060000EC01162F0E94DE036A837B838C839D831B
:10061000CE5BDF4F61E571E0888199810E943507EB
:100620004AE050E0612F888199810E94930768E534
:1006300071E0888199810E94350762E370E080E073
:1006400090E0DF91CF911F910C940D041F93CF93F5
:10065000DF93EC01162F8E89882311F1CE010E94C1
:10066000F002811102C085E61CC0CE010E94F0029A
:100670008823C9F3CE010E94E302883689F048F44A
:10068000883569F0833689F7612FCE010E94FD021B
:1006900007C0813729F0863741F786E702C01E8AF6
:1006A00083E6DF91CF911F9108950F931F93CF930E
:1006B000DF931F92CDB7DEB78C01611108C0F8013E
:1006C000468B0F90DF91CF911F910F91089581E09C
:1006D000F801868B60E0C80149830E9426034981A6
:1006E0008336C1F7ECCF1092D8011092D901109245
:1006F000DA011092DB011092DC011092DD01109200
:10070000DE011092DF011092E0011092E1011092DF
:10071000E2011092E3011092E4011092E5011092BF
:10072000E6011092E70108951F920F920FB60F9203
:1007300011242F933F938F939F93AF93BF938091F7
:100740001B0290911C02A0911D02B0911E023091DB
:100750001A0223E0230F2D3720F40196A11DB11DAD
:1007600005C026E8230F0296A11DB11D20931A0291
:1007700080931B0290931C02A0931D02B0931E0253
:1007800080911F0290912002A0912102B09122023B
:100790000196A11DB11D80931F0290932002A0938A
:1007A0002102B0932202BF91AF919F918F913F910F
:1007B0002F910F900FBE0F901F9018952FB7F894A0
:1007C00060911B0270911C0280911D0290911E028B
:1007D0002FBF08953FB7F89480911F029091200297
:1007E000A0912102B091220226B5A89B05C02F3FFF
:1007F00019F00196A11DB11D3FBF6627782F892FE3
:100800009A2F620F711D811D911D42E0660F771FA7
:10081000881F991F4A95D1F708958F929F92AF92A2
:10082000BF92CF92DF92EF92FF926B017C010E9408
:10083000EA034B015C01C114D104E104F104F1F0BD
:100840000E949A070E94EA03681979098A099B099C
:10085000683E73408105910570F321E0C21AD1080A
:10086000E108F10888EE880E83E0981EA11CB11CF7
:10087000C114D104E104F10429F7DDCFFF90EF901A
:10088000DF90CF90BF90AF909F908F90089582306F
:10089000910538F0880F991F880F991F05970197C8
:1008A000F1F70895789484B5826084BD84B5816041
:1008B00084BD85B5826085BD85B5816085BDEEE668
:1008C000F0E0808181608083E1E8F0E01082808147
:1008D00082608083808181608083E0E8F0E08081B5
:1008E00081608083E1EBF0E0808184608083E0EBD5
:1008F000F0E0808181608083EAE7F0E080818460BD
:100900008083808182608083808181608083808118
:10091000806880831092C1000895833081F028F4AC
:10092000813099F08230A1F008958730A9F08830A5
:10093000B9F08430D1F4809180008F7D03C0809124
:1009400080008F7780938000089584B58F7702C0F0
:1009500084B58F7D84BD08958091B0008F7703C0EA
:100960008091B0008F7D8093B0000895CF93DF9386
:1009700090E0FC01E458FF4F2491FC01E057FF4F49
:100980008491882349F190E0880F991FFC01E2557A
:10099000FF4FA591B4918C559F4FFC01C591D49107
:1009A0009FB7611108C0F8948C91209582238C9395
:1009B000888182230AC0623051F4F8948C91322FDE
:1009C000309583238C938881822B888304C0F8948C
:1009D0008C91822B8C939FBFDF91CF9108950F93C1
:1009E0001F93CF93DF931F92CDB7DEB7282F30E050
:1009F000F901E859FF4F8491F901E458FF4F149130
:100A0000F901E057FF4F04910023C9F0882321F03A
:100A100069830E948D046981E02FF0E0EE0FFF1FD3
:100A2000EC55FF4FA591B4919FB7F8948C9161114B
:100A300003C01095812301C0812B8C939FBF0F9021
:100A4000DF91CF911F910F910895FC01818D228D2F
:100A500090E0805C9F4F821B91098F7399270895C6
:100A6000FC01918D828D981731F0828DE80FF11D78
:100A7000858D90E008958FEF9FEF0895FC01918D93
:100A8000828D981761F0828DDF01A80FB11D5D96F0
:100A90008C91928D9F5F9F73928F90E008958FEF5E
:100AA0009FEF0895FC01848DDF01A80FB11DA35AAB
:100AB000BF4F2C91848D90E001968F739927848F7E
:100AC000A689B7892C93A089B1898C9180648C9375
:100AD000938D848D981306C00288F389E02D808160
:100AE0008F7D80830895CF93DF93EC01888D8823D9
:100AF000C9F0EA89FB89808185FD05C0A889B9898B
:100B00008C9186FD0FC00FB607FCF5CF808185FF65
:100B1000F2CFA889B9898C9185FFEDCFCE010E94D3
:100B20005205E7CFDF91CF910895CF92DF92FF92E8
:100B30000F931F93CF93DF931F92CDB7DEB76C0156
:100B400081E0D60158968C9358975B969C915B9761
:100B50005C968C915C97981307C05096ED91FC9130
:100B60005197808185FD2EC0F601038D10E00F5F47
:100B70001F4F0F731127F02EF601848DF81211C04C
:100B80000FB607FCF9CFD6015096ED91FC91519725
:100B9000808185FFF1CFC60169830E94520569817A
:100BA000EBCF838DE80FF11DE35AFF4F6083D60131
:100BB0005B960C935B975296ED91FC9153978081D5
:100BC00080620CC0D6015696ED91FC9157976083D8
:100BD0005096ED91FC91519780818064808381E0F3
:100BE00090E00F90DF91CF911F910F91FF90DF90D8
:100BF000CF900895BF92CF92DF92EF92FF92CF9362
:100C0000DF93EC016A017B01B22EE889F98982E069
:100C10008083411581EE580761057105A1F060E000
:100C200079E08DE390E0A70196010E949B07215097
:100C30003109410951095695479537952795211551
:100C400080E1380798F0E889F989108260E874E853
:100C50008EE190E0A70196010E949B072150310987
:100C6000410951095695479537952795EC85FD859E
:100C70003083EE85FF852083188EEC89FD89B08254
:100C8000EA89FB89808180618083EA89FB89808190
:100C900088608083EA89FB89808180688083EA8913
:100CA000FB8980818F7D8083DF91CF91FF90EF90D2
:100CB000DF90CF90BF9008951F920F920FB60F92C2
:100CC00011242F938F939F93EF93FF93E09133021F
:100CD000F09134028081E0913902F0913A0282FD74
:100CE00012C0908180913C028F5F8F7320913D02F2
:100CF000821751F0E0913C02F0E0ED5DFD4F958FE1
:100D000080933C0201C08081FF91EF919F918F9170
:100D10002F910F900FBE0F901F9018951F920F925A
:100D20000FB60F9211242F933F934F935F936F93BE
:100D30007F938F939F93AF93BF93EF93FF9383E240
:100D400092E00E945205FF91EF91BF91AF919F9168
:100D50008F917F916F915F914F913F912F910F9064
:100D60000FBE0F901F901895109226021092250228
:100D700088EE93E0A0E0B0E08093270290932802F1
:100D8000A0932902B0932A028DEA91E09093240265
:100D90008093230285EC90E09093300280932F02A1
:100DA00084EC90E0909332028093310280EC90E0EA
:100DB000909334028093330281EC90E0909336025A
:100DC0008093350282EC90E0909338028093370252
:100DD00086EC90E090933A028093390210923C02A4
:100DE00010923D0210923E0210923F020895CF925F
:100DF000DF92EF92FF920F931F93CF93DF937C01CB
:100E00006A01EB0100E010E00C151D0571F069911D
:100E1000D701ED91FC910190F081E02DC70109957A
:100E2000892B19F00F5F1F4FEFCFC801DF91CF91D2
:100E30001F910F91FF90EF90DF90CF900895611573
:100E4000710581F0DB010D900020E9F7AD01415003
:100E50005109461B570BDC01ED91FC910280F38197
:100E6000E02D099480E090E008950C941F078F9284
:100E70009F92AF92BF92DF92EF92FF920F931F93D8
:100E8000CF93DF93CDB7DEB7A1970FB6F894DEBF4F
:100E90000FBECDBF7C01F42FD52ECB0119A222307D
:100EA00008F42AE08E010F5D1F4F822E912CA12C99
:100EB000B12C6F2F7D2DA50194010E949B07F22F6D
:100EC000D32ECA01015011096A3014F4E0E301C0C5
:100ED000E7E3E60FD801EC93232B242B252B49F7CE
:100EE000B801C7010E941F07A1960FB6F894DEBF94
:100EF0000FBECDBFDF91CF911F910F91FF90EF906B
:100F0000DF90BF90AF909F908F900895211531058D
:100F100041F4DC01ED91FC910190F081E02D642F12
:100F200009940C9437079A01462F50E060E070E076
:100F30000C9486070895A1E21A2EAA1BBB1BFD0183
:100F40000DC0AA1FBB1FEE1FFF1FA217B307E407A8
:100F5000F50720F0A21BB30BE40BF50B661F771F00
:100F6000881F991F1A9469F76095709580959095E0
:100F70009B01AC01BD01CF010895EE0FFF1F05904D
:100F8000F491E02D0994A0E0B0E0E9ECF7E00C94D6
:100F90005F0AFE01359661917191AF018091C202A5
:100FA0009091C3020E94D707E2E00C947B0AACE068
:100FB000B0E0EDEDF7E00C944F0A7C016B018A0183
:100FC000FC0117821682838181FFBDC1CE0101968B
:100FD0004C01F7019381F60193FD859193FF819177
:100FE0006F01882309F4ABC1853239F493FD8591F3
:100FF00093FF81916F01853229F4B70190E00E943F
:10100000BF09E7CF512C312C20E02032A0F48B32E5
:1010100069F030F4803259F0833269F420612CC0D9
:101020008D3239F0803339F4216026C0226024608B
:1010300023C0286021C027FD27C030ED380F3A308B
:1010400078F426FF06C0FAE05F9E300D1124532E7F
:1010500013C08AE0389E300D1124332E20620CC05C
:101060008E3221F426FD6BC1206406C08C3611F44B
:10107000206802C0883641F4F60193FD859193FF04
:1010800081916F018111C1CF982F9F7D955493302D
:1010900028F40C5F1F4FFFE3F9830DC0833631F056
:1010A000833771F0833509F05BC022C0F80180817D
:1010B00089830E5F1F4F44244394512C540115C063
:1010C0003801F2E06F0E711CF801A080B18026FF9C
:1010D00003C0652D70E002C06FEF7FEFC5012C8764
:1010E0000E94B4092C0183012C852F77222E17C072
:1010F0003801F2E06F0E711CF801A080B18026FF6C
:1011000003C0652D70E002C06FEF7FEFC5012C8733
:101110000E94A9092C012C852068222E830123FC22
:101120001BC0832D90E048165906B0F4B70180E249
:1011300090E00E94BF093A94F4CFF50127FC859115
:1011400027FE81915F01B70190E00E94BF09311035
:101150003A94F1E04F1A51084114510471F7E5C077
:10116000843611F0893639F5F80127FF07C0608110
:101170007181828193810C5F1F4F08C060817181F2
:10118000882777FD8095982F0E5F1F4F2F76B22E00
:1011900097FF09C090958095709561957F4F8F4F0F
:1011A0009F4F2068B22E2AE030E0A4010E94F1098E
:1011B000A82EA81844C0853729F42F7EB22E2AE025
:1011C00030E025C0F22FF97FBF2E8F36C1F018F422
:1011D000883579F0B4C0803719F0883721F0AFC076
:1011E0002F2F2061B22EB4FE0DC08B2D8460B82E3F
:1011F00009C024FF0AC09F2F9660B92E06C028E0C0
:1012000030E005C020E130E002C020E132E0F8012A
:10121000B7FE07C060817181828193810C5F1F4F8F
:1012200006C06081718180E090E00E5F1F4FA401D5
:101230000E94F109A82EA818FB2DFF77BF2EB6FE3D
:101240000BC02B2D2E7FA51450F4B4FE0AC0B2FCA7
:1012500008C02B2D2E7E05C07A2C2B2D03C07A2C96
:1012600001C0752C24FF0DC0FE01EA0DF11D808127
:10127000803311F4297E09C022FF06C07394739451
:1012800004C0822F867809F0739423FD13C020FFD9
:1012900006C05A2C731418F4530C5718732C73147B
:1012A00068F4B70180E290E02C870E94BF09739434
:1012B0002C85F5CF731410F4371801C0312C24FF9E
:1012C00012C0B70180E390E02C870E94BF092C85F3
:1012D00022FF17C021FF03C088E590E002C088E725
:1012E00090E0B7010CC0822F867859F021FD02C032
:1012F00080E201C08BE227FD8DE2B70190E00E9401
:10130000BF09A51438F4B70180E390E00E94BF093B
:101310005A94F7CFAA94F401EA0DF11D8081B70128
:1013200090E00E94BF09A110F5CF332009F451CEFF
:10133000B70180E290E00E94BF093A94F6CFF7012E
:101340008681978102C08FEF9FEF2C96E2E10C948B
:101350006B0AFC010590615070400110D8F7809530
:1013600090958E0F9F1F0895FC0161507040019071
:101370000110D8F7809590958E0F9F1F08950F93B9
:101380001F93CF93DF93182F092FEB018B8181FDE2
:1013900003C08FEF9FEF20C082FF10C04E815F819E
:1013A0002C813D81421753077CF4E881F9819F012C
:1013B0002F5F3F4F39832883108306C0E885F98566
:1013C000812F0995892B29F72E813F812F5F3F4F70
:1013D0003F832E83812F902FDF91CF911F910F910B
:1013E0000895FA01AA27283051F1203181F1E894BB
:1013F0006F936E7F6E5F7F4F8F4F9F4FAF4FB1E008
:101400003ED0B4E03CD0670F781F891F9A1FA11D02
:10141000680F791F8A1F911DA11D6A0F711D811D03
:10142000911DA11D20D009F468943F912AE0269FC8
:1014300011243019305D3193DEF6CF010895462F27
:101440004770405D4193B3E00FD0C9F7F6CF462F08
:101450004F70405D4A3318F0495D31FD4052419371
:1014600002D0A9F7EACFB4E0A6959795879577952E
:101470006795BA95C9F700976105710508959B01B5
:10148000AC010A2E06945795479537952795BA953E
:10149000C9F7620F731F841F951FA01D08952F9217
:1014A0003F924F925F926F927F928F929F92AF92F4
:1014B000BF92CF92DF92EF92FF920F931F93CF9341
:1014C000DF93CDB7DEB7CA1BDB0B0FB6F894DEBFD8
:1014D0000FBECDBF09942A88398848885F846E84FE
:1014E0007D848C849B84AA84B984C884DF80EE8048
:1014F000FD800C811B81AA81B981CE0FD11D0FB651
:10150000F894DEBF0FBECDBFED010895F894FFCF74
:10151000564D4450565F317C315F564D4450560D08
:101520000A005468697320776173206120747269BE
:10153000756D20706800546869732077617320614D
:1015400020747269756D00000000009102F7065664
:101550004D4450455F003A323A005F564D44504585
:1015600000564D4450435F005F564D4450430D0AB2
:10157000004572726F723A20417474656D70742008
:10158000746F20736574206120726561642D6F6EC5
:101590006C79207661726961626C65206F7220647B
:1015A0006174612074797065206E6F74207375703A
:1015B000706F727465640D0A00000000009505F7F5
:0A15C0000625053E05300573050001
:107E0000112484B714BE81FFF0D085E080938100F7
:107E100082E08093C00088E18093C10086E0809377
:107E2000C20080E18093C4008EE0C9D0259A86E02C
:107E300020E33CEF91E0309385002093840096BBD3
:107E4000B09BFECF1D9AA8958150A9F7CC24DD24C4
:107E500088248394B5E0AB2EA1E19A2EF3E0BF2EE7
:107E6000A2D0813461F49FD0082FAFD0023811F036
:107E7000013811F484E001C083E08DD089C08234E0
:107E800011F484E103C0853419F485E0A6D080C0E4
:107E9000853579F488D0E82EFF2485D0082F10E0AE
:107EA000102F00270E291F29000F111F8ED06801E7
:107EB0006FC0863521F484E090D080E0DECF843638
:107EC00009F040C070D06FD0082F6DD080E0C81688
:107ED00080E7D80618F4F601B7BEE895C0E0D1E017
:107EE00062D089930C17E1F7F0E0CF16F0E7DF06D8
:107EF00018F0F601B7BEE89568D007B600FCFDCFD4
:107F0000A601A0E0B1E02C9130E011968C91119780
:107F100090E0982F8827822B932B1296FA010C0160
:107F200087BEE89511244E5F5F4FF1E0A038BF0790
:107F300051F7F601A7BEE89507B600FCFDCF97BE46
:107F4000E89526C08437B1F42ED02DD0F82E2BD052
:107F50003CD0F601EF2C8F010F5F1F4F84911BD097
:107F6000EA94F801C1F70894C11CD11CFA94CF0C13
:107F7000D11C0EC0853739F428D08EE10CD085E9AC
:107F80000AD08FE07ACF813511F488E018D01DD067
:107F900080E101D065CF982F8091C00085FFFCCF94
:107FA0009093C60008958091C00087FFFCCF809118
:107FB000C00084FD01C0A8958091C6000895E0E648
:107FC000F0E098E1908380830895EDDF803219F02E
:107FD00088E0F5DFFFCF84E1DECF1F93182FE3DFCA
:107FE0001150E9F7F2DF1F91089580E0E8DFEE27F6
:047FF000FF270994CA
:027FFE00040479
:0400000300007E007B
:00000001FF