:100000000C9463000C948B000C948B000C948B006C
:100010000C948B000C948B000C948B000C948B0034
:100020000C948B000C948B000C948B000C948B0024
:100030000C948B000C948B000C948B000C948B0014
:100040000C9456030C948B000C944A060C947C067A
:100050000C948B000C948B000C948B000C948B00F4
:100060000C948B000C948B0000000008000201002F
:100070000003040700000000000000000102040863
:100080001020408001020408102001020408102002
:10009000040404040404040402020202020203032E
:1000A00003030303000000002300260029000000D2
:1000B0000000250028002B0000000000240027007D
:1000C0002A003503AC0611241FBECFEFD8E0DEBFF7
:1000D000CDBF11E0A0E0B1E0E6ECFFE002C005908A
:1000E0000D92A23AB107D9F722E0A2EAB1E001C02D
:1000F0001D92A03AB207E1F710E0C6ECD0E004C0D0
:100100002297FE010E94DD07C23CD107C9F70E9479
:10011000F0060C94E1070C94000048EB5BE060E013
:1001200070E082EB91E00E94830220E032EC41E03B
:1001300050E063E072E082EB91E00E94990261E09E
:1001400082EB91E00E945902882391F066E071E011
:100150008091F4019091F5010E943D076AE070E002
:1001600080E090E00E94CF0382EB91E00E94820247
:1001700041E060E082EB91E00E94170361E08DE0D6
:100180000E946D0460E086E00E946D0460E087E0FC
:100190000E946D0460E088E00E946D04609104019B
:1001A0008DE00C94A604CF92DF92EF92FF920F9312
:1001B0001F93CF93DF930E94A003672B682B692BBB
:1001C00039F40E94A0036230710581059105B8F1F0
:1001D00082EB91E00E94C0016093AA017093AB0191
:1001E0008093AC019093AD010091AE011091AF01ED
:1001F0002091B0013091B101601771078207930718
:1002000040F46093AE017093AF018093B00190937E
:10021000B1010091AE011091AF012091B001309178
:10022000B1016B017C01C01AD10AE20AF30A9701FD
:1002300086010A3F11052105310508F05EC086E000
:100240000E94DC04EC018091A6019091A701C817DF
:10025000D90751F00E94A0036093A2017093A301FB
:100260008093A4019093A5010E94A0030091A20194
:100270001091A3012091A4013091A501601B710B85
:10028000820B930B0091000110910101209102015A
:10029000309103010617170728073907E0F480910A
:1002A000A8019091A901C817D907A9F0D093A90175
:1002B000C093A801C130D10571F481E090E0209194
:1002C000040130910501232B11F080E090E0909320
:1002D000050180930401609104018DE00E94A60451
:1002E000D093A701C093A601DF91CF911F910F91E9
:1002F000FF90EF90DF90CF9008956093AE017093E0
:10030000AF018093B0019093B10144EF51E060E000
:1003100070E082EB91E00E94C20161E082EB91E02B
:100320000E945902882309F161E082EB91E00E946A
:10033000DE0168E171E08091F4019091F5010E9485
:100340003D070E94A003AB01BC012AE030E0809190
:10035000F4019091F5010E94A40782EB91E00E94C4
:10036000440282EB91E00E94820265E070E080E04E
:1003700090E00E94CF0382EB91E00E944D025FCF9C
:100380000C94A003CF93DF93EC014E875F87688BBB
:10039000798B1A8A1B8A1C8A1D8A4E815F81688527
:1003A00079854A875B876C877D870E94A0036E836F
:1003B0007F8388879987DF91CF910895BF92CF92ED
:1003C000DF92EF92FF920F931F93CF93DF938C01F5
:1003D000B62E0E94A0036B017C01E801CE5BDF4FCB
:1003E0006AE171E0888199810E943D074AE050E00E
:1003F0006B2D888199810E94B10761E271E088814B
:1004000099810E943D072AE030E0B701A60188816A
:1004100099810E94A40763E271E0888199810E941A
:100420003D07F80186819781A085B185B701A601B6
:10043000481B590B6A0B7B0B2AE030E088819981BD
:100440000E94A40763E271E0888199810E943D07C0
:10045000F801468157816085718582859385A485E1
:10046000B585481B590B6A0B7B0B2AE030E088816D
:100470009981DF91CF911F910F91FF90EF90DF90C5
:10048000CF90BF900C94A4078E5B9F4F65E271E004
:10049000FC01808191810C944307CF93DF93EC01A1
:1004A0000E94A0036E837F8388879987DF91CF9115
:1004B00008950F931F93CF93DF93EC01611116C042
:1004C0000E94A0030A811B812C813D81601B710B5E
:1004D000820B930B643671058105910538F463E056
:1004E00070E080E090E00E94CF03EACF0E94A0037A
:1004F0006A837B838C839D8381E0DF91CF911F9101
:100500000F9108950895FC01EC5BFF4F108211825A
:1005100012821382FC011282138214821582411509
:1005200051056105710521F0CB01BA010C94CF038F
:100530000895FB01BA01A9018E5B9F4FDC01ED9389
:10054000FC9326E0CF010C94E8058E5B9F4FDC0105
:100550008D919C91DC01ED91FC910680F781E02D5D
:10056000099508958E5B9F4FDC018D919C91DC0174
:10057000ED91FC910480F581E02D099508951F937C
:10058000CF93DF93EC01162F0E94A0036A837B8335
:100590008C839D83CE5BDF4F6CE271E08881998113
:1005A0000E943D074AE050E0612F888199810E94B6
:1005B000B10763E371E0888199810E943D0762E39E
:1005C00070E080E090E0DF91CF911F910C94CF0319
:1005D0001F93CF93DF93EC01162F8E89882311F19F
:1005E000CE010E94B202811102C085E61CC0CE017C
:1005F0000E94B2028823C9F3CE010E94A502883668
:1006000089F048F4883569F0833689F7612FCE0187
:100610000E94BF0207C0813729F0863741F786E77D
:1006200002C01E8A83E6DF91CF911F9108950F9338
:100630001F93CF93DF931F92CDB7DEB78C0161116B
:1006400008C0F801468B0F90DF91CF911F910F9159
:10065000089581E0F801868B60E0C80149830E941B
:10066000E80249818336C1F7ECCF1092B8011092AD
:10067000B9011092BA011092BB011092BC01109204
:10068000BD011092BE011092BF011092C0011092E4
:10069000C1011092C2011092C3011092C4011092C4
:1006A000C5011092C6011092C70108951F920F92C2
:1006B0000FB60F9211242F933F938F939F93AF9375
:1006C000BF938091FB019091FC01A091FD01B0913D
:1006D000FE013091FA0123E0230F2D3720F401961B
:1006E000A11DB11D05C026E8230F0296A11DB11D55
:1006F0002093FA018093FB019093FC01A093FD01EC
:10070000B093FE018091FF0190910002A09101023F
:10071000B09102020196A11DB11D8093FF0190933B
:100720000002A0930102B0930202BF91AF919F918A
:100730008F913F912F910F900FBE0F901F901895A2
:100740002FB7F8946091FB017091FC018091FD013D
:100750009091FE012FBF08953FB7F8948091FF015B
:1007600090910002A0910102B091020226B5A89BCF
:1007700005C02F3F19F00196A11DB11D3FBF66278F
:10078000782F892F9A2F620F711D811D911D42E0D4
:10079000660F771F881F991F4A95D1F708958F928A
:1007A0009F92AF92BF92CF92DF92EF92FF926B0136
:1007B0007C010E94AC034B015C01C114D104E10433
:1007C000F104F1F00E94B8070E94AC03681979099E
:1007D0008A099B09683E73408105910570F321E009
:1007E000C21AD108E108F10888EE880E83E0981E4D
:1007F000A11CB11CC114D104E104F10429F7DDCF1F
:10080000FF90EF90DF90CF90BF90AF909F908F9030
:100810000895789484B5826084BD84B5816084BD78
:1008200085B5826085BD85B5816085BDEEE6F0E069
:10083000808181608083E1E8F0E0108280818260C5
:100840008083808181608083E0E8F0E08081816046
:100850008083E1EBF0E0808184608083E0EBF0E076
:10086000808181608083EAE7F0E08081846080831A
:1008700080818260808380818160808380818068C4
:1008800080831092C1000895833081F028F4813074
:1008900099F08230A1F008958730A9F08830B9F03E
:1008A0008430D1F4809180008F7D03C080918000DE
:1008B0008F7780938000089584B58F7702C084B5C8
:1008C0008F7D84BD08958091B0008F7703C08091A3
:1008D000B0008F7D8093B0000895CF93DF9390E0B8
:1008E000FC01E458FF4F2491FC01E057FF4F849135
:1008F000882349F190E0880F991FFC01E854FF4FCD
:10090000A591B49182559F4FFC01C591D4919FB799
:10091000611108C0F8948C91209582238C93888172
:1009200082230AC0623051F4F8948C91322F3095B2
:1009300083238C938881822B888304C0F8948C91C4
:10094000822B8C939FBFDF91CF9108950F931F93BC
:10095000CF93DF931F92CDB7DEB7282F30E0F90198
:10096000E859FF4F8491F901E458FF4F1491F901C0
:10097000E057FF4F04910023C9F0882321F06983D9
:100980000E9444046981E02FF0E0EE0FFF1FE25562
:10099000FF4FA591B4919FB7F8948C91611103C05A
:1009A0001095812301C0812B8C939FBF0F90DF9105
:1009B000CF911F910F910895CF93DF93282F30E0AF
:1009C000F901E859FF4F8491F901E458FF4FD491A0
:1009D000F901E057FF4FC491CC2391F081110E949F
:1009E0004404EC2FF0E0EE0FFF1FEC55FF4FA591F4
:1009F000B4912C912D2381E090E021F480E002C09D
:100A000080E090E0DF91CF910895FC01818D228DEF
:100A100090E0805C9F4F821B91098F739927089506
:100A2000FC01918D828D981731F0828DE80FF11DB8
:100A3000858D90E008958FEF9FEF0895FC01918DD3
:100A4000828D981761F0828DDF01A80FB11D5D9630
:100A50008C91928D9F5F9F73928F90E008958FEF9E
:100A60009FEF089582EA96E0892B49F080E090E0BC
:100A7000892B29F00E94A20681110C940000089590
:100A8000FC01848DDF01A80FB11DA35ABF4F2C912B
:100A9000848D90E001968F739927848FA689B789FA
:100AA0002C93A089B1898C9180648C93938D848DD3
:100AB000981306C00288F389E02D80818F7D8083A2
:100AC0000895CF93DF93EC01888D8823C9F0EA89DC
:100AD000FB89808185FD05C0A889B9898C9186FD37
:100AE0000FC00FB607FCF5CF808185FFF2CFA88934
:100AF000B9898C9185FFEDCFCE010E944005E7CFEB
:100B0000DF91CF910895CF92DF92FF920F931F93C1
:100B1000CF93DF931F92CDB7DEB76C0181E0D60192
:100B200058968C9358975B969C915B975C968C91AA
:100B30005C97981307C05096ED91FC915197808176
:100B400085FD2EC0F601038D10E00F5F1F4F0F7360
:100B50001127F02EF601848DF81211C00FB607FC94
:100B6000F9CFD6015096ED91FC915197808185FF88
:100B7000F1CFC60169830E9440056981EBCF838D67
:100B8000E80FF11DE35AFF4F6083D6015B960C938B
:100B90005B975296ED91FC915397808180620CC0D7
:100BA000D6015696ED91FC91579760835096ED9142
:100BB000FC91519780818064808381E090E00F9068
:100BC000DF91CF911F910F91FF90DF90CF9008950B
:100BD000BF92CF92DF92EF92FF92CF93DF93EC011F
:100BE0006A017B01B22EE889F98982E08083411590
:100BF00081EE580761057105A1F060E079E08DE3B1
:100C000090E0A70196010E94B907215031094109DE
:100C100051095695479537952795211580E1380755
:100C200098F0E889F989108260E874E88EE190E034
:100C3000A70196010E94B9072150310941095109C4
:100C40005695479537952795EC85FD853083EE853C
:100C5000FF852083188EEC89FD89B082EA89FB89A3
:100C6000808180618083EA89FB89808188608083BC
:100C7000EA89FB89808180688083EA89FB89808199
:100C80008F7D8083DF91CF91FF90EF90DF90CF90A9
:100C9000BF9008951F920F920FB60F9211242F93B9
:100CA0008F939F93EF93FF93E0911302F0911402BF
:100CB0008081E0911902F0911A0282FD12C09081A8
:100CC00080911C028F5F8F7320911D02821751F05B
:100CD000E0911C02F0E0ED5FFD4F958F80931C02C8
:100CE00001C08081FF91EF919F918F912F910F9083
:100CF0000FBE0F901F9018951F920F920FB60F9274
:100D000011242F933F934F935F936F937F938F9310
:100D10009F93AF93BF93EF93FF9383E092E00E9482
:100D20004005FF91EF91BF91AF919F918F917F917E
:100D30006F915F914F913F912F910F900FBE0F9048
:100D40001F90189583E092E00E94050521E0892B11
:100D500009F420E0822F08951092060210920502F5
:100D600088EE93E0A0E0B0E0809307029093080241
:100D7000A0930902B0930A0288E891E090930402DC
:100D80008093030285EC90E09093100280930F0211
:100D900084EC90E0909312028093110280EC90E03A
:100DA000909314028093130281EC90E090931602CA
:100DB0008093150282EC90E09093180280931702C2
:100DC00086EC90E090931A028093190210921C0214
:100DD00010921D0210921E0210921F020895089593
:100DE0000E9409040E94EF060E948D00C2E3D5E034
:100DF0000E94D3002097E1F30E943205F9CFCF92F1
:100E0000DF92EF92FF920F931F93CF93DF937C01BA
:100E10006A01EB0100E010E00C151D0571F069910D
:100E2000D701ED91FC910190F081E02DC70109956A
:100E3000892B19F00F5F1F4FEFCFC801DF91CF91C2
:100E40001F910F91FF90EF90DF90CF900895611563
:100E5000710581F0DB010D900020E9F7AD014150F3
:100E60005109461B570BDC01ED91FC910280F38187
:100E7000E02D099480E090E008950C94270769E341
:100E800071E00C9427070F931F93CF93DF93EC012E
:100E90000E9427078C01CE010E943F07800F911FFF
:100EA000DF91CF911F910F9108958F929F92AF92F2
:100EB000BF92DF92EF92FF920F931F93CF93DF9336
:100EC000CDB7DEB7A1970FB6F894DEBF0FBECDBF8A
:100ED0007C01F42FD52ECB0119A2223008F42AE090
:100EE0008E010F5D1F4F822E912CA12CB12C6F2FE4
:100EF0007D2DA50194010E94B907F22FD32ECA01BE
:100F0000015011096A3014F4E0E301C0E7E3E60F91
:100F1000D801EC93232B242B252B49F7B801C701CB
:100F20000E942707A1960FB6F894DEBF0FBECDBF73
:100F3000DF91CF911F910F91FF90EF90DF90BF90C5
:100F4000AF909F908F9008952115310541F4DC01F9
:100F5000ED91FC910190F081E02D642F09940C94A7
:100F600055079A01462F50E060E070E00C94A4070A
:100F70000895A1E21A2EAA1BBB1BFD010DC0AA1FDA
:100F8000BB1FEE1FFF1FA217B307E407F50720F0F2
:100F9000A21BB30BE40BF50B661F771F881F991F6D
:100FA0001A9469F760957095809590959B01AC01B6
:100FB000BD01CF010895EE0FFF1F0590F491E02DC4
:060FC0000994F894FFCF34
:100FC600320000000100564D4450565F317C315FBF
:100FD600564D4450560D0A007C00564D4450455F10
:100FE600003A323A005F564D44504500564D445043
:100FF600435F005F564D4450430D0A004572726FC1
:10100600723A20417474656D707420746F20736534
:1010160074206120726561642D6F6E6C7920766133
:10102600726961626C65206F7220646174612074FC
:10103600797065206E6F7420737570706F72746549
:10104600640D0A00000000008305FF0605051E0565
:10105600100561056E616E00696E66006F7666004A
:021066002E005A
:107E0000112484B714BE81FFF0D085E080938100F7
:107E100082E08093C00088E18093C10086E0809377
:107E2000C20080E18093C4008EE0C9D0259A86E02C
:107E300020E33CEF91E0309385002093840096BBD3
:107E4000B09BFECF1D9AA8958150A9F7CC24DD24C4
:107E500088248394B5E0AB2EA1E19A2EF3E0BF2EE7
:107E6000A2D0813461F49FD0082FAFD0023811F036
:107E7000013811F484E001C083E08DD089C08234E0
:107E800011F484E103C0853419F485E0A6D080C0E4
:107E9000853579F488D0E82EFF2485D0082F10E0AE
:107EA000102F00270E291F29000F111F8ED06801E7
:107EB0006FC0863521F484E090D080E0DECF843638
:107EC00009F040C070D06FD0082F6DD080E0C81688
:107ED00080E7D80618F4F601B7BEE895C0E0D1E017
:107EE00062D089930C17E1F7F0E0CF16F0E7DF06D8
:107EF00018F0F601B7BEE89568D007B600FCFDCFD4
:107F0000A601A0E0B1E02C9130E011968C91119780
:107F100090E0982F8827822B932B1296FA010C0160
:107F200087BEE89511244E5F5F4FF1E0A038BF0790
:107F300051F7F601A7BEE89507B600FCFDCF97BE46
:107F4000E89526C08437B1F42ED02DD0F82E2BD052
:107F50003CD0F601EF2C8F010F5F1F4F84911BD097
:107F6000EA94F801C1F70894C11CD11CFA94CF0C13
:107F7000D11C0EC0853739F428D08EE10CD085E9AC
:107F80000AD08FE07ACF813511F488E018D01DD067
:107F900080E101D065CF982F8091C00085FFFCCF94
:107FA0009093C60008958091C00087FFFCCF809118
:107FB000C00084FD01C0A8958091C6000895E0E648
:107FC000F0E098E1908380830895EDDF803219F02E
:107FD00088E0F5DFFFCF84E1DECF1F93182FE3DFCA
:107FE0001150E9F7F2DF1F91089580E0E8DFEE27F6
:047FF000FF270994CA
:027FFE00040479
:0400000300007E007B
:00000001FF