:100000000C9462000C948A000C948A000C948A0070
:100010000C948A000C948A000C948A000C948A0038
:100020000C948A000C948A000C948A000C948A0028
:100030000C948A000C948A000C948A000C948A0018
:100040000C94A3030C948A000C948A000C948A00EC
:100050000C948A000C948A000C948A000C948A00F8
:100060000C948A000C948A00000000080002010031
:100070000003040700000000000000000102040863
:100080001020408001020408102001020408102002
:10009000040404040404040402020202020203032E
:1000A00003030303000000002300260029000000D2
:1000B0000000250028002B0000000000240027007D
:1000C0002A00160211241FBECFEFD8E0DEBFCDBF3D
:1000D00011E0A0E0B1E0E0E9FAE002C005900D9285
:1000E000AC33B107D9F721E0ACE3B1E001C01D9218
:1000F000AF36B207E1F710E0C4ECD0E004C02297BD
:10010000FE010E944205C23CD107C9F70E941202BB
:100110000C9446050C940000EF92FF920F931F93EE
:10012000CF93DF937C018B016F3F8FEF780711F442
:1001300000E010E0C0E0D0E080910A0190910B0156
:10014000C817D90774F44C2F61E08EE491E00E9447
:10015000C50262E171E08EE491E00E943E052196C5
:10016000EBCF000F111F0E0D1F1DC0E0D0E08091DE
:100170000A0190910B01C817D9079CF44C2F61E03C
:100180008EE491E00E94C502FE01EE0FFF1FE00F1A
:10019000F11F608171818EE491E00E943E052196FD
:1001A000E6CFDF91CF911F910F91FF90EF900895CF
:1001B0005C0140E060E08EE491E00E94C502609145
:1001C0000601709107018EE491E00E943E05C12C6A
:1001D000D12C8DE00E94D704EC018AE00E94D70464
:1001E0008C0189E00E94D7047C0180914C019091A0
:1001F0004D01C817D90751F00E94ED0360934401E7
:1002000070934501809346019093470180914A0184
:1002100090914B010817190751F00E94ED0360936C
:10022000400170934101809342019093430180917A
:10023000480190914901E816F90651F00E94ED033A
:1002400060933C0170933D0180933E0190933F0188
:100250000E94ED034090440150904501609046019A
:10026000709047016419750986099709409000014B
:1002700050900101609002017090030146165706EC
:100280006806790608F040C0C130D105E9F540E0C4
:1002900060E08EE491E00E94C502609106017091D9
:1002A00007018EE491E00E943E0541E060E08EE4AB
:1002B00091E00E94C50260910401709105018EE4F5
:1002C00091E00E943E0560E070E0C5010E948C0054
:1002D00040E060E08EE491E00E94C502609104017C
:1002E000709105018EE491E00E943E0541E060E0DE
:1002F0008EE491E00E94C5026091060170910701B1
:100300008EE491E00E943E050E94ED034090400182
:100310005090410160904201709043016419750949
:1003200086099709409000015090010160900201F8
:1003300070900301461657066806790608F046C015
:100340000130110509F042C0CD28E1F040E060E045
:100350008EE491E00E94C502609104017091050154
:100360008EE491E00E943E0541E060E08EE491E081
:100370000E94C50260910601709107018EE491E030
:100380000E943E0561E070E0C5010E948C0040E0E3
:1003900060E08EE491E00E94C502609106017091D8
:1003A00007018EE491E00E943E0541E060E08EE4AA
:1003B00091E00E94C50260910401709105018EE4F4
:1003C00091E00E943E05CC24C394D12C10934B01A4
:1003D00000934A01D0934D01C0934C01F092490122
:1003E000E0924801F6CE60E08DE00E94680460E093
:1003F0008AE00E94680460E089E00E94680420E0CE
:1004000040910A01609108018EE491E00E94DF02B0
:100410006FEF7FEF8CE091E00E948C008CE091E028
:100420000E94D8000E9404040E94F301CF92EF9230
:100430000F9332E0C32E43E0E42E04E025E04BE0CE
:100440006CE08EE491E00E947D030F91EF90CF90DD
:100450000895CF93DF93EC0160E08E810E94A104A8
:1004600081E090E00E94F90361E08E810E94A10486
:1004700081E090E00E94F90360E08E810E94A10477
:1004800084E690E0DF91CF910C94F903EF92FF9214
:100490000F931F93CF93DF938C01C0E0D0E0E62E43
:1004A000F12CB7010C2E02C0759567950A94E2F7FE
:1004B0006170F801EC0FFD1F87810E94A104219655
:1004C000C430D10571F7C801DF91CF911F910F9111
:1004D000FF90EF900C942902EF92FF920F931F93DD
:1004E000CF93DF938C01C0E0D0E0E62EF12CB70172
:1004F0000C2E02C0759567950A94E2F76170F801B9
:10050000EC0FFD1F87810E94A1042196C830D10500
:1005100071F7C801DF91CF911F910F91FF90EF907C
:100520000C9429021F93CF93DF93EC01162F642FB5
:100530008C810E94A1048D818F3F19F060E00E94A0
:10054000A1048F85612F84FF06C0CE01DF91CF917A
:100550001F910C946C0270E084E0759567958A9504
:10056000E1F7CE010E944602612FCE01DF91CF91CB
:100570001F910C94460240E00C94920261E00E94AC
:10058000BB0280ED97E00C94F903443008F043E09F
:10059000FC012389421710F04FEF420FFC01E40FDA
:1005A000F11D2489260F2068622F0C94BB02FC01E8
:1005B0006089262F2460208B6C600C94BB020F9303
:1005C0001F93CF93DF93EC01423018F08F85886042
:1005D0008F874B8B1C8A80E48D8B6E8B70E0605C08
:1005E0007F4F6F8B222329F0413019F48F8584606F
:1005F0008F8761E08C810E9468048D818F3F19F0A4
:1006000061E00E94680461E08E810E94680400E05D
:1006100010E08F8584FF03C088E090E002C084E092
:1006200090E00817190754F4FE01E00FF11F61E094
:1006300087810E9468040F5F1F4FEBCF80E593EC2A
:100640000E94F90360E08C810E94A10460E08E8129
:100650000E94A1048D818F3F19F060E00E94A104E7
:100660006F8564FD1DC063E0CE010E94460284E9EF
:1006700091E10E94F90363E0CE010E94460284E901
:1006800091E10E94F90363E0CE010E94460286E9EF
:1006900090E00E94F90362E0CE010E94460216C07B
:1006A0006062CE010E94BB0284E991E10E94F903DD
:1006B0006F856062CE010E94BB0286E990E00E94D5
:1006C000F9036F856062CE010E94BB026F85606294
:1006D000CE010E94BB0284E0888BCE010E94D7022B
:1006E000CE010E94BE0282E0898B66E0CE01DF91DE
:1006F000CF911F910F910C94BB02CF92EF920F9369
:10070000FC011382128287E391E0918380836483EA
:100710008FEF8583468327830087E186C286138611
:10072000148615861686178620E041E060E1CF0129
:100730000F91EF90CF900C94DF0241E00E94920263
:1007400081E090E008951F920F920FB60F9211244E
:100750002F933F938F939F93AF93BF9380916701A4
:1007600090916801A0916901B0916A013091660190
:1007700023E0230F2D3720F40196A11DB11D05C0E4
:1007800026E8230F0296A11DB11D209366018093D8
:10079000670190936801A0936901B0936A01809109
:1007A0006B0190916C01A0916D01B0916E01019669
:1007B000A11DB11D80936B0190936C01A0936D01FD
:1007C000B0936E01BF91AF919F918F913F912F9107
:1007D0000F900FBE0F901F9018952FB7F89460914F
:1007E0006701709168018091690190916A012FBF42
:1007F00008958230910538F0880F991F880F991F4E
:1008000005970197F1F70895789484B5826084BDC7
:1008100084B5816084BD85B5826085BD85B5816004
:1008200085BDEEE6F0E0808181608083E1E8F0E064
:100830001082808182608083808181608083E0E893
:10084000F0E0808181608083E1EBF0E08081846072
:100850008083E0EBF0E0808181608083EAE7F0E074
:1008600080818460808380818260808380818160D8
:1008700080838081806880831092C10008958330D6
:1008800081F028F4813099F08230A1F0089587300A
:10089000A9F08830B9F08430D1F4809180008F7D48
:1008A00003C0809180008F7780938000089584B585
:1008B0008F7702C084B58F7D84BD08958091B0008C
:1008C0008F7703C08091B0008F7D8093B000089532
:1008D000CF93DF9390E0FC01E458FF4F2491FC019B
:1008E000E057FF4F8491882349F190E0880F991FCA
:1008F000FC01E854FF4FA591B49182559F4FFC0134
:10090000C591D4919FB7611108C0F8948C9120953E
:1009100082238C93888182230AC0623051F4F89438
:100920008C91322F309583238C938881822B8883FE
:1009300004C0F8948C91822B8C939FBFDF91CF9150
:1009400008950F931F93CF93DF931F92CDB7DEB718
:10095000282F30E0F901E859FF4F8491F901E4585C
:10096000FF4F1491F901E057FF4F04910023C9F0A4
:10097000882321F069830E943F046981E02FF0E021
:10098000EE0FFF1FE255FF4FA591B4919FB7F8946A
:100990008C91611103C01095812301C0812B8C9330
:1009A0009FBF0F90DF91CF911F910F910895CF932B
:1009B000DF93282F30E0F901E859FF4F8491F901C6
:1009C000E458FF4FD491F901E057FF4FC491CC2375
:1009D00091F081110E943F04EC2FF0E0EE0FFF1F19
:1009E000EC55FF4FA591B4912C912D2381E090E01F
:1009F00021F480E002C080E090E0DF91CF91089583
:100A0000CF92DF92EF92FF920F931F93CF93DF93DA
:100A10007C016A01EB0100E010E00C151D0571F08E
:100A20006991D701ED91FC910190F081E02DC70112
:100A30000995892B19F00F5F1F4FEFCFC801DF9188
:100A4000CF911F910F91FF90EF90DF90CF9008957D
:100A50006115710581F0DB010D900020E9F7AD0112
:100A600041505109461B570BDC01ED91FC9102806E
:100A7000F381E02D099480E090E008950C9428051E
:100A8000EE0FFF1F0590F491E02D0994F894FFCF2D
:100A9000640000001D011F010D000200210126015C
:100AA0002E0120202020202020202020202000583F
:100AB0000054696D65004F7074696F6E7300426118
:0C0AC000636B00000000009D03000500B7
:107E0000112484B714BE81FFF0D085E080938100F7
:107E100082E08093C00088E18093C10086E0809377
:107E2000C20080E18093C4008EE0C9D0259A86E02C
:107E300020E33CEF91E0309385002093840096BBD3
:107E4000B09BFECF1D9AA8958150A9F7CC24DD24C4
:107E500088248394B5E0AB2EA1E19A2EF3E0BF2EE7
:107E6000A2D0813461F49FD0082FAFD0023811F036
:107E7000013811F484E001C083E08DD089C08234E0
:107E800011F484E103C0853419F485E0A6D080C0E4
:107E9000853579F488D0E82EFF2485D0082F10E0AE
:107EA000102F00270E291F29000F111F8ED06801E7
:107EB0006FC0863521F484E090D080E0DECF843638
:107EC00009F040C070D06FD0082F6DD080E0C81688
:107ED00080E7D80618F4F601B7BEE895C0E0D1E017
:107EE00062D089930C17E1F7F0E0CF16F0E7DF06D8
:107EF00018F0F601B7BEE89568D007B600FCFDCFD4
:107F0000A601A0E0B1E02C9130E011968C91119780
:107F100090E0982F8827822B932B1296FA010C0160
:107F200087BEE89511244E5F5F4FF1E0A038BF0790
:107F300051F7F601A7BEE89507B600FCFDCF97BE46
:107F4000E89526C08437B1F42ED02DD0F82E2BD052
:107F50003CD0F601EF2C8F010F5F1F4F84911BD097
:107F6000EA94F801C1F70894C11CD11CFA94CF0C13
:107F7000D11C0EC0853739F428D08EE10CD085E9AC
:107F80000AD08FE07ACF813511F488E018D01DD067
:107F900080E101D065CF982F8091C00085FFFCCF94
:107FA0009093C60008958091C00087FFFCCF809118
:107FB000C00084FD01C0A8958091C6000895E0E648
:107FC000F0E098E1908380830895EDDF803219F02E
:107FD00088E0F5DFFFCF84E1DECF1F93182FE3DFCA
:107FE0001150E9F7F2DF1F91089580E0E8DFEE27F6
:047FF000FF270994CA
:027FFE00040479
:0400000300007E007B
:00000001FF