:100000000C945F000C9487000C9487000C9487007C
:100010000C9487000C9487000C9487000C94870044
:100020000C9487000C9487000C9487000C94870034
:100030000C9487000C9487000C9487000C94870024
:100040000C94A8040C9487000C9470070C94A207DD
:100050000C9487000C9487000C9487000C94870004
:100060000C9487000C948700000000080002010037
:100070000003040700000000000000000102040863
:100080001020408001020408102001020408102002
:10009000040404040404040402020202020203032E
:1000A0000303030300000000250028002B000000CC
:1000B0000000240027002A00EF008704C80711244D
:1000C0001FBECFEFD8E0DEBFCDBF11E0A0E0B1E0B2
:1000D000E2EBF1E102C005900D92A83BB107D9F720
:1000E00022E0A8EBB1E001C01D92AE3BB207E1F700
:1000F00010E0CEEBD0E004C02297FE010E94D308AE
:10010000C83BD107C9F70E94E6000C94D7080C94AD
:10011000000048EB5BE060E070E080ED91E00E9461
:10012000D50320E032EC41E050E061E272E080ED86
:1001300091E00E94EB0361E080ED91E00E94AB034F
:10014000882391F06EE071E0809112029091130289
:100150000E9449086AE070E080E090E00E9421057A
:1001600080ED91E00E94D40341E060E080ED91E0F9
:100170000C946904CF93DF93EA0120E0462F682FA7
:1001800088EB91E00E94CB0240E060E088EB91E0D8
:100190000E9496026881798188EB91E00E9449086B
:1001A00041E060E088EB91E00E9496026A817B81E9
:1001B00088EB91E0DF91CF910C94490840E051E049
:1001C00063E070E080E190E00C94BA000E94660564
:1001D0000E9489000E94DE0080E090E00895CF92A6
:1001E000EF920F9382E0C82E93E0E92E04E025E021
:1001F0004BE06CE088EB91E00E947F030F91EF9061
:10020000CF9008952CB5982F93702C7F922B9CBD86
:100210009DB582FB882780F99E7F982B9DBD089510
:10022000CF93DF93EC018A890E9402018C898111AE
:1002300003C08CB5806202C08CB58F7D8CBD8CB53F
:10024000837F9B89892B8CBD60E089890E9403068E
:100250008F858EBD00000DB407FEFDCF8EB561E029
:100260008989DF91CF910C940306CF92DF92EF92B0
:10027000FF92CF93DF93EC018889811117C060E072
:100280008E810E94030681E090E00E945B0561E0A0
:100290008E810E94030681E090E00E945B0560E091
:1002A0008E810E94030684E690E03EC0C12CD12CD2
:1002B0007601C394D701C6010E8004C0880F991F30
:1002C000AA1FBB1F0A94D2F780959F8598239F870A
:1002D000CE010E94100181E090E00E945B05D701F1
:1002E000C6010E8004C0880F991FAA1FBB1F0A9465
:1002F000D2F72F85282B2F87CE010E94100181E095
:1003000090E00E945B050E8004C0CC0CDD1CEE1C4E
:10031000FF1C0A94D2F7C0948F858C218F87CE0161
:100320000E94100188E290E0DF91CF91FF90EF9062
:10033000DF90CF900C945B05CF92DF92EF92FF920B
:100340000F931F93CF93DF937C01C0E0D0E0C62EC4
:10035000D12C87010C0F1D1F61E0F80187810E94DD
:10036000CA05B6010C2E02C0759567950A94E2F78E
:100370006170F80187810E9403062196C830D1057B
:1003800041F7C701DF91CF911F910F91FF90EF903F
:10039000DF90CF900C943501CF92DF92EF92FF92D5
:1003A0000F931F93CF93DF937C01DC0150968C91C8
:1003B000C62FD0E081111DC000E010E06701C00E23
:1003C000D11E61E0F60187810E94CA05BE01002EA0
:1003D00002C0759567950A94E2F76170D601179689
:1003E0008C910E9403060F5F1F4F0430110531F7F7
:1003F00039C084E090E041E050E060E070E09C01B2
:1004000024503109FE0102C0F595E7952A95E2F7DF
:100410009F01D7011F96EC911F9720FF0EC08A0104
:100420009B01082E04C0000F111F221F331F0A94C6
:10043000D2F70E2B1F960C930EC08A019B01082E3B
:1004400004C0000F111F221F331F0A94D2F700951A
:100450000E23F701078701968830910581F6C701C1
:100460000E941001C701DF91CF911F910F91FF9062
:10047000EF90DF90CF900C9435011F93CF93DF93D3
:10048000EC01162F8889811114C0642F8C810E9481
:1004900003068D818F3F19F060E00E9403068D896D
:1004A000612F84FF29C0CE01DF91CF911F910C9461
:1004B0009C019C818F85442369F041E050E060E01D
:1004C00070E004C0440F551F661F771F9A95D2F73E
:1004D000482B0DC041E050E060E070E004C0440FE4
:1004E000551F661F771F9A95D2F7409548234F876F
:1004F000CE010E941001612F70E094E07595679520
:100500009A95E1F7CE010E94CC01612FCE01DF91D7
:10051000CF911F910C94CC0140E00C943D0261E01E
:100520000E948C0280ED97E00C945B05CF93DF93E3
:10053000CDB7DEB728970FB6F894DEBF0FBECDBF9C
:1005400028E0E6E0F1E0DE01119601900D922A9597
:10055000E1F7FC01218D241710F44FEF420FFE014B
:100560003196E40FF11DE40FF11D2081260F206864
:10057000622F28960FB6F894DEBF0FBECDBFDF9175
:10058000CF910C948C02FC016689262F2460268B67
:100590006C600C948C02CF93DF93EC01423018F026
:1005A0008D8988608D8B498F1A8E222329F04130E6
:1005B00019F48D8984608D8B80E593EC0E945B0536
:1005C00060E08C810E94030660E08E810E94030639
:1005D0008D818F3F19F060E00E9403066D8964FDF4
:1005E0001DC063E0CE010E94CC0184E991E10E942C
:1005F0005B0563E0CE010E94CC0184E991E10E9499
:100600005B0563E0CE010E94CC0186E990E00E9488
:100610005B0562E0CE010E94CC0116C06062CE0193
:100620000E948C0284E991E10E945B056D89606201
:10063000CE010E948C0286E990E00E945B056D89E4
:100640006062CE010E948C026D896062CE010E94C0
:100650008C0284E08E8BCE010E94C302CE010E94E8
:100660008F0282E08F8B66E0CE01DF91CF910C94F8
:100670008C026F927F928F92AF92CF92EF920F93F4
:100680001F93CF93DF93CDB7DEB73C01162F842F96
:100690005D854E853F859889F30184832583068394
:1006A000E782C086A18682865387448735879687EE
:1006B00061E00E94CA05F30185818F3F19F061E076
:1006C0000E94CA0561E0F30186810E94CA051123D8
:1006D00019F0F301158A03C080E1F301858B20E056
:1006E00041E060E1C301DF91CF911F910F91EF9045
:1006F000CF90AF908F907F906F900C94CB028F92A1
:10070000AF92CF92EF920F93DC0113961C921E9240
:100710001297E9E3F1E0ED93FC931F921F921F9271
:100720001F928C2CAE2CC02EE22E042F2FEF462FC2
:1007300061E00E9439030F900F900F900F900F917E
:10074000EF90CF90AF908F90089541E00E943D02CE
:1007500081E090E008950F931F93CF93DF93EC0116
:10076000611116C00E94F2040A811B812C813D8117
:10077000601B710B820B930B613271058105910532
:1007800038F463E070E080E090E00E942105EACF59
:100790000E94F2046A837B838C839D8381E0DF91D6
:1007A000CF911F910F9108950895FC01EC5BFF4FCD
:1007B0001082118212821382FC011282138214822F
:1007C0001582411551056105710521F0CB01BA0172
:1007D0000C9421050895FB01BA01A9018E5B9F4F7E
:1007E000DC01ED93FC9326E0CF010C940E078E5BA9
:1007F0009F4FDC018D919C91DC01ED91FC91068075
:10080000F781E02D099508958E5B9F4FDC018D9156
:100810009C91DC01ED91FC910480F581E02D09951E
:1008200008951F93CF93DF93EC01162F0E94F204DB
:100830006A837B838C839D83CE5BDF4F6FE471E0A3
:10084000888199810E9449084AE050E0612F88819F
:1008500099810E94A70866E571E0888199810E94CC
:10086000490862E370E080E090E0DF91CF911F9152
:100870000C9421051F93CF93DF93EC01162F8E89E3
:10088000882311F1CE010E940404811102C085E683
:100890001CC0CE010E9404048823C9F3CE010E942B
:1008A000F703883689F048F4883569F0833689F78C
:1008B000612FCE010E94110407C0813729F08637CD
:1008C00041F786E702C01E8A83E6DF91CF911F9130
:1008D00008950F931F93CF93DF931F92CDB7DEB789
:1008E0008C01611108C0F801468B0F90DF91CF9108
:1008F0001F910F91089581E0F801868B60E0C80197
:1009000049830E943A0449818336C1F7ECCF1092A3
:10091000D6011092D7011092D8011092D9011092ED
:10092000DA011092DB011092DC011092DD011092CD
:10093000DE011092DF011092E0011092E1011092AD
:10094000E2011092E3011092E4011092E501089592
:100950001F920F920FB60F9211242F933F938F93F4
:100960009F93AF93BF938091190290911A02A09127
:100970001B02B0911C023091180223E0230F2D3787
:1009800020F40196A11DB11D05C026E8230F029693
:10099000A11DB11D209318028093190290931A0291
:1009A000A0931B02B0931C0280911D0290911E0225
:1009B000A0911F02B09120020196A11DB11D80934C
:1009C0001D0290931E02A0931F02B0932002BF91BC
:1009D000AF919F918F913F912F910F900FBE0F90EC
:1009E0001F9018952FB7F8946091190270911A0210
:1009F00080911B0290911C022FBF08953FB7F8947D
:100A000080911D0290911E02A0911F02B0912002C0
:100A100026B5A89B05C02F3F19F00196A11DB11D59
:100A20003FBF6627782F892F9A2F620F711D811D76
:100A3000911D42E0660F771F881F991F4A95D1F7D5
:100A400008958F929F92AF92BF92CF92DF92EF92D2
:100A5000FF926B017C010E94FE044B015C01C114FA
:100A6000D104E104F104F1F00E94AE080E94FE04FA
:100A7000681979098A099B09683E734081059105C7
:100A800070F321E0C21AD108E108F10888EE880E5F
:100A900083E0981EA11CB11CC114D104E104F1042F
:100AA00029F7DDCFFF90EF90DF90CF90BF90AF9010
:100AB0009F908F9008958230910538F0880F991F8C
:100AC000880F991F05970197F1F70895789484B5D9
:100AD000826084BD84B5816084BD85B5826085BD3A
:100AE00085B5816085BDEEE6F0E080818160808320
:100AF000E1E8F0E010828081826080838081816003
:100B00008083E0E8F0E0808181608083E1EBF0E0C9
:100B1000808184608083E0EBF0E08081816080836D
:100B2000EAE7F0E080818460808380818260808356
:100B30008081816080838081806880831092C10081
:100B40000895833081F028F4813099F08230A1F04B
:100B500008958730A9F08830B9F08430D1F48091BD
:100B600080008F7D03C0809180008F77809380000C
:100B7000089584B58F7702C084B58F7D84BD0895B4
:100B80008091B0008F7703C08091B0008F7D8093FB
:100B9000B0000895CF93DF9390E0FC01E458FF4F3D
:100BA0002491FC01E057FF4F8491882349F190E0A4
:100BB000880F991FFC01E255FF4FA591B4918C5508
:100BC0009F4FFC01C591D4919FB7611108C0F89463
:100BD0008C91209582238C93888182230AC0623075
:100BE00051F4F8948C91322F309583238C93888123
:100BF000822B888304C0F8948C91822B8C939FBFA6
:100C0000DF91CF9108950F931F93CF93DF931F929E
:100C1000CDB7DEB7282F30E0F901E859FF4F8491B6
:100C2000F901E458FF4F1491F901E057FF4F049187
:100C30000023C9F0882321F069830E94A1056981FE
:100C4000E02FF0E0EE0FFF1FEC55FF4FA591B491A0
:100C50009FB7F8948C91611103C01095812301C056
:100C6000812B8C939FBF0F90DF91CF911F910F919C
:100C70000895FC01818D228D90E0805C9F4F821B46
:100C800091098F7399270895FC01918D828D981792
:100C900031F0828DE80FF11D858D90E008958FEF82
:100CA0009FEF0895FC01918D828D981761F0828DE0
:100CB000DF01A80FB11D5D968C91928D9F5F9F7390
:100CC000928F90E008958FEF9FEF0895FC01848D3F
:100CD000DF01A80FB11DA35ABF4F2C91848D90E066
:100CE00001968F739927848FA689B7892C93A08941
:100CF000B1898C9180648C93938D848D981306C0F8
:100D00000288F389E02D80818F7D80830895CF93C1
:100D1000DF93EC01888D8823C9F0EA89FB89808103
:100D200085FD05C0A889B9898C9186FD0FC00FB6D5
:100D300007FCF5CF808185FFF2CFA889B9898C9116
:100D400085FFEDCFCE010E946606E7CFDF91CF9100
:100D50000895CF92DF92FF920F931F93CF93DF936B
:100D60001F92CDB7DEB76C0181E0D60158968C9307
:100D700058975B969C915B975C968C915C979813C7
:100D800007C05096ED91FC915197808185FD2EC052
:100D9000F601038D10E00F5F1F4F0F731127F02E28
:100DA000F601848DF81211C00FB607FCF9CFD601F9
:100DB0005096ED91FC915197808185FFF1CFC6014E
:100DC00069830E9466066981EBCF838DE80FF11D70
:100DD000E35AFF4F6083D6015B960C935B97529664
:100DE000ED91FC915397808180620CC0D60156969C
:100DF000ED91FC91579760835096ED91FC9151973E
:100E000080818064808381E090E00F90DF91CF91BA
:100E10001F910F91FF90DF90CF900895BF92CF92D6
:100E2000DF92EF92FF92CF93DF93EC016A017B0197
:100E3000B22EE889F98982E08083411581EE580756
:100E400061057105A1F060E079E08DE390E0A70114
:100E500096010E94AF082150310941095109569568
:100E6000479537952795211580E1380798F0E8894F
:100E7000F989108260E874E88EE190E0A70196019C
:100E80000E94AF08215031094109510956954795F3
:100E900037952795EC85FD853083EE85FF8520838A
:100EA000188EEC89FD89B082EA89FB898081806196
:100EB0008083EA89FB89808188608083EA89FB8955
:100EC000808180688083EA89FB8980818F7D80832F
:100ED000DF91CF91FF90EF90DF90CF90BF9008957A
:100EE0001F920F920FB60F9211242F938F939F93FF
:100EF000EF93FF93E0913102F09132028081E09113
:100F00003702F091380282FD12C0908180913A023E
:100F10008F5F8F7320913B02821751F0E0913A026C
:100F2000F0E0EF5DFD4F958F80933A0201C0808124
:100F3000FF91EF919F918F912F910F900FBE0F9086
:100F40001F9018951F920F920FB60F9211242F9396
:100F50003F934F935F936F937F938F939F93AF9341
:100F6000BF93EF93FF9381E292E00E946606FF91A8
:100F7000EF91BF91AF919F918F917F916F915F9111
:100F80004F913F912F910F900FBE0F901F9018958A
:100F9000109224021092230288EE93E0A0E0B0E0C9
:100FA0008093250290932602A0932702B0932802F3
:100FB0008BEA91E0909322028093210285EC90E0ED
:100FC00090932E0280932D0284EC90E09093300257
:100FD00080932F0280EC90E0909332028093310254
:100FE00081EC90E0909334028093330282EC90E0A5
:100FF000909336028093350286EC90E0909338020D
:101000008093370210923A0210923B0210923C02F7
:1010100010923D020895CF92DF92EF92FF920F93CC
:101020001F93CF93DF937C016A01EB0100E010E096
:101030000C151D0571F06991D701ED91FC9101909E
:10104000F081E02DC7010995892B19F00F5F1F4F23
:10105000EFCFC801DF91CF911F910F91FF90EF90DB
:10106000DF90CF9008956115710581F0DB010D903F
:101070000020E9F7AD0141505109461B570BDC0137
:10108000ED91FC910280F381E02D099480E090E0E5
:1010900008950C9433088F929F92AF92BF92DF9283
:1010A000EF92FF920F931F93CF93DF93CDB7DEB7ED
:1010B000A1970FB6F894DEBF0FBECDBF7C01F42F11
:1010C000D52ECB0119A2223008F42AE08E010F5D43
:1010D0001F4F822E912CA12CB12C6F2F7D2DA5019D
:1010E00094010E94AF08F22FD32ECA0101501109BA
:1010F0006A3014F4E0E301C0E7E3E60FD801EC93B3
:10110000232B242B252B49F7B801C7010E94330854
:10111000A1960FB6F894DEBF0FBECDBFDF91CF9181
:101120001F910F91FF90EF90DF90BF90AF909F9035
:101130008F9008952115310541F4DC01ED91FC916A
:101140000190F081E02D642F09940C944B089A01D2
:10115000462F50E060E070E00C949A080895A1E2F8
:101160001A2EAA1BBB1BFD010DC0AA1FBB1FEE1F21
:10117000FF1FA217B307E407F50720F0A21BB30B6C
:10118000E40BF50B661F771F881F991F1A9469F7E8
:1011900060957095809590959B01AC01BD01CF0144
:1011A0000895EE0FFF1F0590F491E02D0994F89437
:0211B000FFCF6F
:1011B2002001280130010000400014005400564D67
:1011C2004450565F317C315F564D4450560D0A00F3
:1011D2004D6F726E696E67004576656E696E670067
:1011E2004261636B0000000000A5030B08564D44EA
:1011F20050455F003A323A005F564D445045005622
:101202004D4450435F005F564D4450430D0A004524
:1012120072726F723A20417474656D707420746FCB
:1012220020736574206120726561642D6F6E6C7924
:10123200207661726961626C65206F7220646174EC
:10124200612074797065206E6F7420737570706F91
:10125200727465640D0A0000000000A9060B0839CB
:0812620006520644068706004F
:107E0000112484B714BE81FFF0D085E080938100F7
:107E100082E08093C00088E18093C10086E0809377
:107E2000C20080E18093C4008EE0C9D0259A86E02C
:107E300020E33CEF91E0309385002093840096BBD3
:107E4000B09BFECF1D9AA8958150A9F7CC24DD24C4
:107E500088248394B5E0AB2EA1E19A2EF3E0BF2EE7
:107E6000A2D0813461F49FD0082FAFD0023811F036
:107E7000013811F484E001C083E08DD089C08234E0
:107E800011F484E103C0853419F485E0A6D080C0E4
:107E9000853579F488D0E82EFF2485D0082F10E0AE
:107EA000102F00270E291F29000F111F8ED06801E7
:107EB0006FC0863521F484E090D080E0DECF843638
:107EC00009F040C070D06FD0082F6DD080E0C81688
:107ED00080E7D80618F4F601B7BEE895C0E0D1E017
:107EE00062D089930C17E1F7F0E0CF16F0E7DF06D8
:107EF00018F0F601B7BEE89568D007B600FCFDCFD4
:107F0000A601A0E0B1E02C9130E011968C91119780
:107F100090E0982F8827822B932B1296FA010C0160
:107F200087BEE89511244E5F5F4FF1E0A038BF0790
:107F300051F7F601A7BEE89507B600FCFDCF97BE46
:107F4000E89526C08437B1F42ED02DD0F82E2BD052
:107F50003CD0F601EF2C8F010F5F1F4F84911BD097
:107F6000EA94F801C1F70894C11CD11CFA94CF0C13
:107F7000D11C0EC0853739F428D08EE10CD085E9AC
:107F80000AD08FE07ACF813511F488E018D01DD067
:107F900080E101D065CF982F8091C00085FFFCCF94
:107FA0009093C60008958091C00087FFFCCF809118
:107FB000C00084FD01C0A8958091C6000895E0E648
:107FC000F0E098E1908380830895EDDF803219F02E
:107FD00088E0F5DFFFCF84E1DECF1F93182FE3DFCA
:107FE0001150E9F7F2DF1F91089580E0E8DFEE27F6
:047FF000FF270994CA
:027FFE00040479
:0400000300007E007B
:00000001FF