:100000000C9468000C9490000C9490000C94900058
:100010000C9490000C9490000C9490000C94900020
:100020000C9490000C9490000C9490000C94900010
:100030000C9490000C9490000C9490000C94900000
:100040000C946B040C9490000C9436070C94680785
:100050000C9490000C9490000C9490000C949000E0
:100060000C9490000C949000AC0298029D029C02AB
:10007000A102A502A702AB020000000800020100D5
:100080000003040700000000000000000102040853
:1000900010204080010204081020010204081020F2
:1000A000040404040404040402020202020203031E
:1000B0000303030300000000250028002B000000BC
:1000C0000000240027002A00E6006B034A0498077A
:1000D00011241FBECFEFD8E0DEBFCDBF11E0A0E0FE
:1000E000B1E0ECEBF1E102C005900D92AC3CB10740
:1000F000D9F722E0ACECB1E001C01D92A83CB207F8
:10010000E1F710E0C0EDD0E004C02297FE010E94AC
:10011000C908C83CD107C9F70E94DC070C94DC0869
:100120000C94000040ED57E060E070E08AED91E053
:100130000E94980320E835E240E050E06BE272E074
:100140008AED91E00E94AE0361E08AED91E00E94A9
:100150006E03882391F061E171E080911C0290911F
:100160001D020E9429086AE070E080E090E00E9491
:10017000E4048AED91E00E94970341E060E08AED9B
:1001800091E00E942C0426E040E855E260E070E037
:100190008BE292E00E94D40663E271E08BE292E08F
:1001A0000E942F086AE070E08CEC91E00C94CB0187
:1001B00061E371E08BE292E00E942F0822E041E0CF
:1001C00064E670E08CEC91E00C94BB0241E068ECDA
:1001D00070E08CEC91E00C94640184B5836884BD7C
:1001E00017BC61E086E00C94820584B5836284BD0F
:1001F00018BC61E085E00C948205CF93DF9360E04A
:100200008CE00E94BB0560E088E00E94BB05C7E06F
:10021000D0E060E084E00E94BB058091D90190E0CD
:100220000C2E02C0959587950A94E2F780FF02C0D4
:1002300061E001C060E088E00E94BB0561E084E00D
:100240000E94BB05219728F761E08CE0DF91CF91F8
:100250000C94BB05CF93DF93EC0161E08CE00E942E
:10026000820561E087E00E94820561E088E00E94EB
:10027000820561E084E00E9482051092D901CE01DE
:100280000E94FD0060E087E0DF91CF910C94BB05F8
:10029000E0EBF0E090819368908387708093B100E9
:1002A0001092B30061E08BE00C948205E0EBF0E08B
:1002B00090819362908387708093B1001092B40014
:1002C00061E083E00C948205EF92FF920F931F93FD
:1002D000CF93DF931F92CDB7DEB77C018B0188ED02
:1002E00091E049830E942A01F7011183008349812B
:1002F00042831386413029F58091D901817E809314
:10030000D90188ED91E00E94FD0061E08BE00E9440
:10031000820561E083E00E94820561E08BE00E943B
:10032000BB0561E083E00E94BB0581E00E944801BB
:1003300081E00E9456018FEF8093B3008093B40058
:1003400022C0423001F58091D9018E718093D9018C
:1003500088ED91E00E94FD0061E085E00E94820549
:1003600061E086E00E94820561E085E00E94BB05B5
:1003700061E086E00E94BB050E94ED000E94F5004E
:100380008FEF87BD88BD0F90DF91CF911F910F91A7
:10039000FF90EF900895CF93DF93EC019B01A8812C
:1003A000B9810E94CD089B01AC0160E077E883E948
:1003B00093E00E94A5082B833C834D835E831F82BC
:1003C000188619861A86DF91CF9108950F931F938F
:1003D000CF93DF93EC017A81713041F0723009F0F4
:1003E000C4C0B0E4A0E831E020E204C0B0E1A8E07D
:1003F00032E024E08B85413019F483FF05C00DC045
:10040000423049F483FF09C0613011F4805F01C0BC
:1004100080518B8741C0433031F4613011F4885FE3
:10042000F8CF8850F6CF4430B9F5613011F48F5FC2
:1004300001C081508B875B855F735B87852F90E060
:10044000503148F4E0E1F1E0E81BF90B5081FC0188
:10045000E050FF4F1FC060EF650F603138F4FC01C2
:10046000E051FF4F5081E0E2F1E012C050525031B4
:1004700048F4E0E3F1E0E81BF90B5081FC01E052A5
:10048000FF4F08C0FC01E053FF4F5081E0E4F1E072
:10049000E81BF90B808102C05FEF8FEF9B859F7394
:1004A0009B87713029F45093B3008093B40004C04B
:1004B000723011F457BD88BD132F122B0B2F0A2B4E
:1004C000802F812B80959091D90189238093D90128
:1004D0009B85443001F5903118F4812B8093D9012C
:1004E00080EF890F803130F43A2B8091D901832B32
:1004F0008093D90180EE890F803128F48091D90151
:10050000802B8093D9019053903148F52B2B80910B
:10051000D901822B0EC0492F46954695469550E04D
:1005200048305105E0F44C5C5F4FFA010C94C70869
:10053000812B8093D90113C03A2B382B3093D901EA
:100540000EC0A82BA093D9010AC0802BF2CFB82BE4
:10055000B093D90104C02B2B282B2093D90188ED0F
:1005600091E00E94FD008B8501C080E0DF91CF917A
:100570001F910F9108954F925F926F927F929F9279
:10058000AF92BF92CF92DF92EF92FF920F931F93A1
:10059000CF93DF93EC018B01A42EB22E6B817C8173
:1005A0008D819E8123E0B21210C096958795779534
:1005B000679528EE33E040E050E00E94A50869010D
:1005C0007A012B013C01912C3FC024E0B212F1CF03
:1005D00024E096958795779567952A95D1F734E02D
:1005E000000F111F3A95E1F7E4CF4B2D6A2DCE0194
:1005F0000E94E601982EC701B6010E94E4048F8193
:100600009885A985BA85840D951DA61DB71D8F8374
:100610009887A987BA87883E9340A105B10590F0D5
:1006200061E070E080E090E00E94E4048F819885B2
:10063000A985BA85885E9340A109B1098F839887FF
:10064000A987BA87015011090115110571F684E0D7
:10065000B81231C0892D8F7E71F144E06A2DCE0130
:100660000E94E601982EC701B6010E94E4048F8122
:100670009885A985BA85840D951DA61DB71D8F8304
:100680009887A987BA87883E9340A105B10510F3E2
:1006900061E070E080E090E00E94E4048F81988542
:1006A000A985BA85885E9340A109B1098F8398878F
:1006B000A987BA87CFCFDF91CF911F910F91FF907C
:1006C000EF90DF90CF90BF90AF909F907F906F9012
:1006D0005F904F9008951092D80108950F931F9343
:1006E000CF93DF93EC01611116C00E94B5040A811B
:1006F0001B812C813D81601B710B820B930B643637
:1007000071058105910538F463E070E080E090E0C8
:100710000E94E404EACF0E94B5046A837B838C8341
:100720009D8381E0DF91CF911F910F9108950895EE
:10073000FC01EC5BFF4F1082118212821382FC01DC
:1007400012821382148215824115510561057105CB
:1007500021F0CB01BA010C94E4040895FB01BA0125
:10076000A9018E5B9F4FDC01ED93FC9326E0CF0146
:100770000C94D4068E5B9F4FDC018D919C91DC0123
:10078000ED91FC910680F781E02D099508958E5B2F
:100790009F4FDC018D919C91DC01ED91FC910480D7
:1007A000F581E02D099508951F93CF93DF93EC0118
:1007B000162F0E94B5046A837B838C839D83CE5B56
:1007C000DF4F65E571E0888199810E9429084AE040
:1007D00050E0612F888199810E949D086CE571E04D
:1007E000888199810E94290862E370E080E090E0AE
:1007F000DF91CF911F910C94E4041F93CF93DF936B
:10080000EC01162F8E89882311F1CE010E94C703B7
:10081000811102C085E61CC0CE010E94C703882357
:10082000C9F3CE010E94BA03883689F048F48835AE
:1008300069F0833689F7612FCE010E94D40307C087
:10084000813729F0863741F786E702C01E8A83E6A2
:10085000DF91CF911F9108950F931F93CF93DF9353
:100860001F92CDB7DEB78C01611108C0F801468B2D
:100870000F90DF91CF911F910F91089581E0F801C2
:10088000868B60E0C80149830E94FD03498183365D
:10089000C1F7ECCF1092E0011092E1011092E20159
:1008A0001092E3011092E4011092E5011092E6012A
:1008B0001092E7011092E8011092E9011092EA010A
:1008C0001092EB011092EC011092ED011092EE01EA
:1008D0001092EF0108951F920F920FB60F921124FC
:1008E0002F933F938F939F93AF93BF938091230256
:1008F00090912402A0912502B0912602309122020B
:1009000023E0230F2D3720F40196A11DB11D05C052
:1009100026E8230F0296A11DB11D20932202809389
:10092000230290932402A0932502B0932602809183
:10093000270290912802A0912902B0912A020196E3
:10094000A11DB11D8093270290932802A093290234
:10095000B0932A02BF91AF919F918F913F912F91B8
:100960000F900FBE0F901F9018952FB7F8946091BD
:1009700023027091240280912502909126022FBFBC
:1009800008953FB7F8948091270290912802A09192
:100990002902B0912A0226B5A89B05C02F3F19F065
:1009A0000196A11DB11D3FBF6627782F892F9A2F71
:1009B000620F711D811D911D42E0660F771F881F18
:1009C000991F4A95D1F708958F929F92AF92BF9247
:1009D000CF92DF92EF92FF926B017C010E94C104E3
:1009E0004B015C01C114D104E104F104F1F00E9457
:1009F000A4080E94C104681979098A099B09683E04
:100A000073408105910570F321E0C21AD108E10815
:100A1000F10888EE880E83E0981EA11CB11CC11459
:100A2000D104E104F10429F7DDCFFF90EF90DF90CE
:100A3000CF90BF90AF909F908F900895789484B599
:100A4000826084BD84B5816084BD85B5826085BDCA
:100A500085B5816085BDEEE6F0E0808181608083B0
:100A6000E1E8F0E010828081826080838081816093
:100A70008083E0E8F0E0808181608083E1EBF0E05A
:100A8000808184608083E0EBF0E0808181608083FE
:100A9000EAE7F0E0808184608083808182608083E7
:100AA0008081816080838081806880831092C10012
:100AB0000895833081F028F4813099F08230A1F0DC
:100AC00008958730A9F08830B9F08430D1F480914E
:100AD00080008F7D03C0809180008F77809380009D
:100AE000089584B58F7702C084B58F7D84BD089545
:100AF0008091B0008F7703C08091B0008F7D80938C
:100B0000B0000895CF93DF9390E0FC01E457FF4FCE
:100B10002491FC01E056FF4F8491882349F190E035
:100B2000880F991FFC01E254FF4FA591B4918C549A
:100B30009F4FFC01C591D4919FB7611108C0F894F3
:100B40008C91209582238C93888182230AC0623005
:100B500051F4F8948C91322F309583238C938881B3
:100B6000822B888304C0F8948C91822B8C939FBF36
:100B7000DF91CF9108950F931F93CF93DF931F922F
:100B8000CDB7DEB7282F30E0F901E858FF4F849148
:100B9000F901E457FF4F1491F901E056FF4F04911A
:100BA0000023C9F0882321F069830E9459056981D7
:100BB000E02FF0E0EE0FFF1FEC54FF4FA591B49132
:100BC0009FB7F8948C91611103C01095812301C0E7
:100BD000812B8C939FBF0F90DF91CF911F910F912D
:100BE0000895FC01818D228D90E0805C9F4F821BD7
:100BF00091098F7399270895FC01918D828D981723
:100C000031F0828DE80FF11D858D90E008958FEF12
:100C10009FEF0895FC01918D828D981761F0828D70
:100C2000DF01A80FB11D5D968C91928D9F5F9F7320
:100C3000928F90E008958FEF9FEF08958EE897E0F0
:100C4000892B49F080E090E0892B29F00E948E07E3
:100C500081110C9400000895FC01848DDF01A80F20
:100C6000B11DA35ABF4F2C91848D90E001968F73D4
:100C70009927848FA689B7892C93A089B1898C91F3
:100C800080648C93938D848D981306C00288F389B9
:100C9000E02D80818F7D80830895CF93DF93EC01D9
:100CA000888D8823C9F0EA89FB89808185FD05C08C
:100CB000A889B9898C9186FD0FC00FB607FCF5CFC6
:100CC000808185FFF2CFA889B9898C9185FFEDCF0E
:100CD000CE010E942C06E7CFDF91CF910895CF92ED
:100CE000DF92FF920F931F93CF93DF931F92CDB7A5
:100CF000DEB76C0181E0D60158968C9358975B96CD
:100D00009C915B975C968C915C97981307C050966A
:100D1000ED91FC915197808185FD2EC0F601038DE8
:100D200010E00F5F1F4F0F731127F02EF601848D17
:100D3000F81211C00FB607FCF9CFD6015096ED910D
:100D4000FC915197808185FFF1CFC60169830E9494
:100D50002C066981EBCF838DE80FF11DE35AFF4F1D
:100D60006083D6015B960C935B975296ED91FC9154
:100D70005397808180620CC0D6015696ED91FC910C
:100D8000579760835096ED91FC91519780818064D4
:100D9000808381E090E00F90DF91CF911F910F91C0
:100DA000FF90DF90CF900895BF92CF92DF92EF92A5
:100DB000FF92CF93DF93EC016A017B01B22EE889A9
:100DC000F98982E08083411581EE5807610571053C
:100DD000A1F060E079E08DE390E0A70196010E9428
:100DE000A508215031094109510956954795379574
:100DF0002795211580E1380798F0E889F989108254
:100E000060E874E88EE190E0A70196010E94A508D1
:100E10002150310941095109569547953795279534
:100E2000EC85FD853083EE85FF852083188EEC8967
:100E3000FD89B082EA89FB89808180618083EA89AB
:100E4000FB89808188608083EA89FB898081806852
:100E50008083EA89FB8980818F7D8083DF91CF91B8
:100E6000FF90EF90DF90CF90BF9008951F920F9268
:100E70000FB60F9211242F938F939F93EF93FF93AD
:100E8000E0913B02F0913C028081E0914102F091BF
:100E9000420282FD12C09081809144028F5F8F7365
:100EA00020914502821751F0E0914402F0E0E55DA7
:100EB000FD4F958F8093440201C08081FF91EF9197
:100EC0009F918F912F910F900FBE0F901F901895AB
:100ED0001F920F920FB60F9211242F933F934F93AF
:100EE0005F936F937F938F939F93AF93BF93EF9392
:100EF000FF938BE292E00E942C06FF91EF91BF914D
:100F0000AF919F918F917F916F915F914F913F91A1
:100F10002F910F900FBE0F901F9018958BE292E0CB
:100F20000E94F10521E0892B09F420E0822F089529
:100F300010922E0210922D0288EE93E0A0E0B0E015
:100F400080932F0290933002A0933102B09332022B
:100F500081EB91E090932C0280932B0285EC90E042
:100F6000909338028093370284EC90E090933A0299
:100F70008093390280EC90E090933C0280933B0296
:100F800081EC90E090933E0280933D0282EC90E0F1
:100F90009093400280933F0286EC90E0909342024F
:100FA0008093410210924402109245021092460230
:100FB00010924702089508950E941E050E94DB07C3
:100FC0000E949200CEE1D6E00E94D8002097E1F383
:100FD0000E941E06F9CFCF92DF92EF92FF920F93FD
:100FE0001F93CF93DF937C016A01EB0100E010E0D7
:100FF0000C151D0571F06991D701ED91FC910190DF
:10100000F081E02DC7010995892B19F00F5F1F4F63
:10101000EFCFC801DF91CF911F910F91FF90EF901B
:10102000DF90CF9008956115710581F0DB010D907F
:101030000020E9F7AD0141505109461B570BDC0177
:10104000ED91FC910280F381E02D099480E090E025
:1010500008950C94130862E671E00C9413080F9342
:101060001F93CF93DF93EC010E9413088C01CE01F4
:101070000E942B08800F911FDF91CF911F910F913C
:1010800008958F929F92AF92BF92DF92EF92FF925C
:101090000F931F93CF93DF93CDB7DEB7A1970FB612
:1010A000F894DEBF0FBECDBF7C01F42FD52ECB014F
:1010B00019A2223008F42AE08E010F5D1F4F822E04
:1010C000912CA12CB12C6F2F7D2DA50194010E9494
:1010D000A508F22FD32ECA01015011096A3014F469
:1010E000E0E301C0E7E3E60FD801EC93232B242BC8
:1010F000252B49F7B801C7010E941308A1960FB626
:10110000F894DEBF0FBECDBFDF91CF911F910F913D
:10111000FF90EF90DF90BF90AF909F908F900895D9
:101120002115310541F4DC01ED91FC910190F08134
:10113000E02D642F09940C9441089A01462F50E049
:1011400060E070E00C9490080895A1E21A2EAA1BAA
:10115000BB1BFD010DC0AA1FBB1FEE1FFF1FA21767
:10116000B307E407F50720F0A21BB30BE40BF50B64
:10117000661F771F881F991F1A9469F760957095ED
:10118000809590959B01AC01BD01CF010895EE0FB4
:10119000FF1F0590F491E02D0994A29FB001B39F29
:1011A000C001A39F700D811D1124911DB29F700D70
:0C11B000811D1124911D0895F894FFCFBB
:1011BC000019324A62788DA2B4C5D4E1ECF4FAFD80
:1011CC00FF564D4450565F317C315F564D4450565E
:1011DC000D0A005374657070657220746573742108
:1011EC0000446F75626C6520636F696C2073746565
:1011FC00707300564D4450455F003A323A005F56CA
:10120C004D44504500564D4450435F005F564D448D
:10121C0050430D0A004572726F723A204174746526
:10122C006D707420746F2073657420612072656119
:10123C00642D6F6E6C79207661726961626C6520C9
:10124C006F7220646174612074797065206E6F74A4
:10125C0020737570706F727465640D0A0000000065
:10126C00006F06EB07F1050A06FC054D066E616E74
:0C127C0000696E66006F7666002E0000B0
:00000001FF
